:020000040800F2
:100000000000022061370008090E00085D0E00089C
:10001000790E0008890E0008990E00080000000003
:10002000000000000000000000000000310F000888
:10003000410F000800000000510F0008610F000888
:10004000A9370008A9370008A9370008A937000810
:10005000A9370008A93700086902000889020008CA
:10006000A9370008A9370008A9370008A9370008F0
:10007000A9370008A9370008A9370008A9370008E0
:10008000A9370008A9370008A9370008A9370008D0
:10009000A9370008A9370008A9370008A9370008C0
:1000A000A9370008A9370008A9370008A9370008B0
:1000B000A9370008A9370008A9370008A9370008A0
:1000C000A9370008A9370008A9370008A937000890
:1000D000A9370008A9370008A9370008A937000880
:1000E000A9370008A9370008A9370008A937000870
:1000F000A9370008A9370008A9370008A937000860
:10010000A9370008750F0008A9370008A9370008AB
:10011000A9370008A9370008A9370008A93700083F
:10012000A9370008A9370008A9370008A93700082F
:10013000A9370008A9370008A9370008A93700081F
:10014000A9370008A9370008A9370008A93700080F
:10015000A9370008A9370008A9370008A9370008FF
:10016000A9370008A9370008A9370008A9370008EF
:10017000A9370008A9370008A9370008A9370008DF
:08018000A9370008A9370008A7
:1001880010B5054C237833B9044B13B10448AFF3C9
:1001980000800123237010BD8808002000000000A3
:1001A800284700080C4B43B10C480D4910B5AFF374
:1001B80000800C48036823B910BD0A48036833B9A6
:1001C8007047094B002BF7D0BDE810401847064B85
:1001D800002BF5D0184700BF000000002847000892
:1001E8008C0800208408002000000000154B002B1C
:1001F80008BF134B9D46A3F5803A00218B460F4656
:100208001348144A121A03F005FB0F4B002B00D0B9
:1002180098470E4B002B00D098470020002104007F
:100228000D000D48002802D00C4803F011FC03F023
:10023800C9FA2000290003F0DDF903F0B3FA00BF82
:10024800000008000000000000000000000000009E
:100258008808002034090020593A0008653A000847
:1002680008B5012002F0C0FC00B908BD034A01230B
:1002780013701846BDE8084002F0C4BCA40800206A
:1002880008B5022002F0B0FC00B908BD034B0122FA
:100298005A700220BDE8084002F0B4BCA40800204F
:1002A80000B5012183B0082001F01CFE4FF4704214
:1002B80040F20133694604488DE80C0001F026FC41
:1002C80003B05DF804FB00BF000C024000B501213B
:1002D80083B0084601F006FE0122054B054800924E
:1002E8006946019301F012FC03B05DF804FB00BFFE
:1002F800000300020000024030B587B000230C2242
:100308001A4CADF80C304FF4E13501210420ADF85A
:100318000E30ADF81030ADF81430ADF8122002955B
:1003280001F0E0FD01214FF4002001F0FFFD20461F
:1003380008220A2101F07AFC0D4D204608220B21E3
:1003480001F074FC4FF440620A4B00922046694663
:10035800019301F0DBFB284602A901F019FF2846AA
:10036800012101F099FF07B030BD00BF000802402D
:10037800004C004002020001024A10601368002B82
:10038800FCD17047A8080020034B1A6812B11A68FC
:10039800013A1A60704700BFA8080020014B58684E
:1003A800704700BFA80800200028B8BF4042704727
:1003B80030B5102185B02148214D01F027FC2021BE
:1003C8001E4801F025FC0120FFF7D6FF01E001F0EF
:1003D800F3FA0F22D4211B4800F0A8FAD4280446C7
:1003E8002846F4D1184B93E80300052502908DF8B0
:1003F8000C1002AB214600952022124800F0DCFBCD
:1004080002AB2146009520220E4800F0F9FA9DF82B
:100418000B009DF80C409DF80A309DF809209DF8C6
:1004280008108DE81100094801F0C6FA084B0022AF
:100438001A805A809A8005B030BD00BF000402407F
:1004480034440008005400408C4300085844000815
:10045800EC08002010B50A4C1021204601F0D6FB0C
:100468002046202101F0D4FB0120FFF785FF8023DF
:100478002222D4210348BDE8104000F04FBB00BF42
:10048800000402400054004010B50A4C10212046D8
:1004980001F0BCFB2046202101F0BAFB0120FFF748
:1004A8006BFF00232222D4210348BDE8104000F04E
:1004B80035BB00BF0004024000540040F0B51021D5
:1004C80085B004461A4801F0A1FB2021184801F024
:1004D8009FFB0120FFF750FF0622002502AB009288
:1004E800D42128221348ADF80C50029500F088FA60
:1004F8009DF809709DF808109DF80B609DF80A207A
:100508009DF80D509DF80C300B4841EA072142EA4E
:10051800062243EA052309B212B21BB201804280C7
:10052800838014B1054801F047FA05B0F0BD00BF5B
:100538000004024000540040EC0800208C440008ED
:1005480030B52A4D2A4C8BB02846102101F05EFBAD
:100558002846202101F05CFB0120FFF70DFF012157
:10056800082001F0BFFC01214FF4804001F0EAFCB3
:100578000225204B2048079306A9069501F0C6FAE4
:100588000121032002F098FA01210022102308A873
:100598008DF826108DF824208DF82530089502F066
:1005A800C5FA0AA8154B40F81C3D02F03BFB204653
:1005B800AA233022D42100F0B1FA114B93E80300AA
:1005C80006230490ADF8141020460093322204ABA1
:1005D800D42100F0F1FA30222046D42100F0A6F907
:1005E8000146084801F0E8F90BB030BD00040240AC
:1005F8000054004000030001000C02400700000105
:1006080094430008B044000830B52A4D2A4C87B0FE
:100618002846102101F0FCFA2846202101F0F6FABC
:100628000120FFF7A9FE0121082001F05BFC012150
:100638004FF4804001F086FC0125204B20480393AD
:1006480002A9029501F062FA0021032002F034FAAF
:10065800102300220DEB03008DF8142004958DF86B
:1006680016508DF8153002F061FA06A8154B40F8BF
:10067800143D02F0D7FA2046952330223A2100F0A3
:100688004DFA0723204632223A2100F047FA204645
:1006980030223A2100F04AF9322205463A21204612
:1006A80000F044F929460246074801F085F907B0E9
:1006B80030BD00BF000402400054004000030001A8
:1006C800000C024006000001D4440008F0B51021D7
:1006D80089B02648264C01F09BFA2021234801F0D6
:1006E80095FA0120FFF748FE01E001F065F90F22B5
:1006F8003A21204800F01AF949282046F5D11E4B26
:1007080093E8030006AC082584E803002346009517
:100718001F223A21174800F04FFA009523461F225E
:100728003A21144800F06CF99DF81B009DF81E60F2
:100738009DF81D509DF81C409DF81F709DF81A30BB
:100748009DF819209DF8181004978DE871000B4842
:1007580001F032F90A4A0B49002313805380938031
:1007680093600B804B808B8009B0F0BD0004024081
:1007780000450008005400409C4300082445000838
:10078800FC080020F4080020F0B5102185B00646CA
:100798003A483B4C01F03CFA2021384801F036FA3F
:1007A80006250120FFF7E8FD002702AB0095282267
:1007B8003A213448ADF80C70029700F021F99DF801
:1007C80009E09DF80B009DF808709DF80A209DF837
:1007D8000D109DF80C3047EA0E2742EA002212B2AB
:1007E8003FB282EAE27043EA012387EAE7711BB26B
:1007F800A0EBE270A1EBE771014483EAE370A0EBA0
:10080800E37001440120A16027806280A380FFF784
:10081800B3FD009502AB08223A211A481A4D00F0A0
:10082800EFF89DF809E09DF808109DF80B709DF809
:100838000A209DF80D009DF80C3041EA0E2142EA8D
:10084800072243EA002329806A80AB809EB1A06812
:10085800B4F90430B4F90220B4F9001000900B4840
:1008680001F0AAF8B5F90430B5F90220B5F900107D
:10087800074801F0A1F805B0F0BD00BF0004024030
:10088800FC08002000540040F408002068450008D7
:100898009445000830B5012185B04FF4001001F0EF
:1008A80045FB1E4C1E4D0121022001F01BFB1D4B78
:1008B80020466946C0228DE80C0001F027F9204641
:1008C8000422062101F0B2F920460422072101F092
:1008D800ADF920466946302240F201338DE80C001C
:1008E80001F014F9104B00934FF48042002369463D
:1008F80028464BF6FF74ADF80430ADF80830ADF873
:100908000A30ADF80C20ADF8064002F019FA284676
:10091800012102F099FA05B030BD00BF0004024081
:100928000054004002020101A0860100F8B5044607
:100938000E4617464FF40031204602F0C7FB002848
:10094800F8D10121204602F08DFA284D294620468B
:1009580002F0A6FB0028F9D000223146204602F01A
:100968009DFA234D2946204602F09AFB0028F9D02B
:100978003946204602F02CFB1E4D2946204602F03F
:100988008FFB0028F9D00121204602F06BFA174DA1
:100998002946204602F084FB0028F9D0314601227E
:1009A800204602F07BFA144D2946204602F078FBD7
:1009B8000028F9D00021204602F07CFA0F4D294684
:1009C800204602F06DFB0028F9D0204602F002FB19
:1009D80001210546204602F053FA4FF40031204623
:1009E80002F074FB0028F8D12846F8BD0100030086
:1009F8008200070084000700020003004000030093
:100A08002DE9F843BDF82060002E7BD004468846C7
:100A180091461F464FF40031204602F057FB00284C
:100A2800F8D10121204602F01DFA374D294620460B
:100A380002F036FB0028F9D000224146204602F099
:100A48002DFA324D2946204602F02AFB0028F9D01B
:100A580049F08001204602F0BBFA2D4D2946204678
:100A680002F01EFB0028F9D00121204602F0FAF915
:100A7800254D2946204602F013FB0028F9D04146AF
:100A88000122204602F00AFA224D2946204602F0A9
:100A980007FB0028F9D0012E1AD0023E1FFA86F86B
:100AA8001D4D07EB08097E1E0121204602F002FABF
:100AB8002946204602F0F4FA0028F9D0204602F030
:100AC80089FA06F8010F4E45EED108F101084744AE
:100AD8000021204602F0EEF90F4D2946204602F08B
:100AE800DFFA0028F9D0204602F074FA01213870A4
:100AF800204602F0C5F94FF40031204602F0E6FA2C
:100B08000028F8D1BDE8F88301000300820007003F
:100B18008400070002000300400003002DE9F041B3
:100B28000446884617461E464FF40031204602F018
:100B3800CDFA0028F8D10121204602F093F91B4D87
:100B48002946204602F0ACFA0028F9D04146002296
:100B5800204602F0A3F9164D2946204602F0A0FAD5
:100B68000028F9D03946204602F032FA114D2946BC
:100B7800204602F095FA0028F9D03146204602F0C6
:100B880027FA0C4D2946204602F08AFA0028F9D0A7
:100B98000121204602F074F94FF40031204602F09A
:100BA80095FA0028F8D1BDE8F08100BF01000300E4
:100BB80082000700840007002DE9F843BDF82050A3
:100BC800002D4CD00446894690461E464FF400310D
:100BD800204602F07BFA0028F8D10121204602F0D5
:100BE80041F9204F3946204602F05AFA0028F9D038
:100BF80049460022204602F051F91B4F394620464B
:100C080002F04EFA0028F9D048F08001204602F0A0
:100C1800DFF9164F3946204602F042FA0028F9D08B
:100C2800013D16FA85F7114D013E16F8011F2046C1
:100C380002F0CEF92946204602F032FA0028F9D00F
:100C4800BE42F2D10121204602F01AF94FF40031D8
:100C5800204602F03BFA0028F8D1BDE8F883BDE849
:100C6800F88300BF0100030082000700840007002A
:100C7800012102F005B900BF4049414BD1F8882055
:100C8800404842F47002C1F888201A68002142F0F6
:100C980001021A6099601A6822F0847222F4803284
:100CA8001A6058601A6882B022F480221A60D960EB
:100CB800009101911A6842F480321A601A4603E0E2
:100CC800009BB3F5A06F09D0136803F400330193B8
:100CD800009B01330093019B002BF1D0284B1B682C
:100CE80013F4003318BF01230193019B012B14D087
:100CF800234A2549936823F400039360C2F88410BB
:100D0800136843F08063136013681B01FCD51B4B09
:100D18004FF000629A6002B07047194B1B491A6C79
:100D28001B4842F080521A640A6842F480420A6002
:100D38009A689A609A6842F400429A609A6842F403
:100D4800A0529A6058601A6842F080721A601A6855
:100D58009201FCD50F490A4A40F20560086099687B
:100D680021F003019960996841F002019960936844
:100D780003F00C03082BFAD1BAE700BF00ED00E03E
:100D8800003802401030002400300050007000404D
:100D980008544007003C0240154A936803F00C03CE
:100DA800042B23D0082B09D0124B114A1249926800
:100DB800C2F303128A5CD3400B61704750685168D4
:100DC80052684302C2F3881201F03F014CBF0B4B3B
:100DD800084BB3FBF1F303FB02F3054A5268C2F375
:100DE800014201325200B3FBF2F3DEE7034BDCE7CA
:100DF800003802400024F4000400002000127A00A9
:100E080008B5024800F0D8FDFEE700BFB445000869
:100E180000B5034603F114010EC985B009480191D4
:100E28000292039300F0C8FD0299074800F0C4FD40
:100E38000399064800F0C0FD0199054800F0BCFD83
:100E4800FEE700BFC4450008D0450008DC4500089F
:100E5800E84500081EF0040F0CBFEFF30880EFF31D
:100E680009808169004A1047190E0008FEE700BF93
:100E780008B5024800F0A0FDFEE700BFF4450008F1
:100E880008B5024800F098FDFEE700BF08460008D4
:100E98001C4C1D4808B500F08FFDA16A1B4800F0E6
:100EA8008BFDA36A9B0128D4164B9B6ADC0120D4D6
:100EB800144B9B6A180318D4124B9B6A590310D41D
:100EC800104B9B6A9A0308D40E4B9B6ADB0300D431
:100ED800FEE70F4800F070FDFAE70E4800F06CFDE1
:100EE800F2E70D4800F068FDEAE70C4800F064FD01
:100EF800E2E70B4800F060FDDAE70A4800F05CFD25
:100F0800D2E700BF00ED00E01C46000834460008A8
:100F1800A4460008904600087C4600086846000879
:100F2800504600083C46000808B5024800F044FD59
:100F3800FEE700BFC046000808B5024800F03CFDC7
:100F4800FEE700BFD046000808B5024800F034FDAF
:100F5800FEE700BFE446000808B5FFF715FA024AA5
:100F680013680133136008BDAC080020704700BF48
:100F7800704700BF0549064A081D13885B06FCD563
:100F880011F8013B93808142F7D1FEE7F84600084B
:100F9800004C00404FF0FF30704700BF024B0C225E
:100FA8001A604FF0FF3070470C090020024B0B22EB
:100FB8001A604FF0FF3070470C0900204FF40053BF
:100FC8004B600020704700BF01207047022804D9F9
:100FD800034B09221A60002070470120704700BFA8
:100FE8000C090020024B16221A604FF0FF307047A0
:100FF8000C090020024B1F221A604FF0FF30704787
:101008000C0900200020704710B4124C2368F3B17B
:10101800EFF308811844884214D90F490F4A01F1A7
:10102800190013885B06FCD511F8013B93808142B7
:10103800F7D10B4B5DF8044B0C221A604FF0FF33CD
:1010480018467047206018465DF8044B7047054BFA
:101058002360DDE7B008002000470008004C00408E
:101068000C0900203409002098B9002A0EDD0C482C
:1010780010B48C1803889B06FCD5838801F8013BC3
:10108800A142F7D110465DF8044B7047024610465E
:101098007047044B09221A604FF0FF32F7E700BF90
:1010A800004C00400C0900204FF400534B60002016
:1010B800704700BF4FF0FF30704700BF024B02225D
:1010C8001A604FF0FF3070470C090020024B0A22CB
:1010D8001A604FF0FF3070470C090020012810B447
:1010E80019D002280FD1002A09DD124C881823884C
:1010F8005B06FCD511F8013BA3808842F7D1104666
:101108005DF8044B70470C4B5DF8044B09224FF017
:10111800FF301A607047002AF1DD064C88182388D2
:101128005B06FCD511F8013BA3808142F7D110463C
:10113800E6E700BF004C00400C090020034A138872
:101148005B06FCD5C0F3080393807047004C004051
:101158002DE9F047B2F1000A05460F465FDD0C782D
:10116800002C54D00A46002112F8010F0131002842
:10117800FAD18A454CDC82469A0754BF4FF02009C1
:101188004FF0300913F00106C84644D1BAF1000FF8
:101198000FDD002D58D02C68534684F800902C6839
:1011A800013B04F101042C60F7D13C7856464FF01E
:1011B800000A2046CCB1DDB12C6820702C680134BF
:1011C8002C6017F8010F01360028F6D1BAF1000F8C
:1011D8000BDD6DB32C68514684F800902C680139FA
:1011E80004F101042C60F7D156443046BDE8F0877D
:1011F800FFF7A4FF17F8010F01360028E6D0FFF724
:101208009DFF17F8010F01360028F1D1DEE72146CE
:10121800AAEB010AB0E72046ECB10026CBE713F0B1
:1012280001060CD00878C0B14FF02009C846F4E791
:1012380054464046FFF782FF013CFAD1D4E74FF00D
:1012480020093C78C846B4E754464046FFF776FF85
:10125800013CFAD1A9E72646B8E70646C5E700BF2C
:101268002DE9F04784B01E46DDF8309000287ED086
:101278000346002A5ED100278DF80F700D9A0DF1F4
:101288000F05A2F13A0EB3FBF1F201FB12330EEB9C
:101298000300092BC8BF03463033DCB205F8014D03
:1012A8001346002AEFD157B1002E4DD019F0020F86
:1012B8004AD02D20FFF742FF2C78013E0127002E4F
:1012C80040F39880002C49D02A46002312F8010FD9
:1012D80001330028FAD19E4241DC804619F0020F02
:1012E80014BF4FF0300A4FF0200A19F001094646A2
:1012F80038D1B8F1000F40F39A805046FFF71EFF2F
:10130800013EFAD18CB12046FFF718FF15F8014FBE
:1013180008F10108002CF6D1002E06DD34465046AF
:10132800FFF70CFF013CFAD1B0444744384604B0FB
:10133800BDE8F0870A299ED100289CDA00224342A2
:101348008DF80F20012799E72D23002E05F8013C81
:1013580005F1FF3557DD1C460027B5E72346A6EB08
:101368000308BBE7002C5CD04FF00008CBE7302324
:10137800002E04468DF801008DF8003036DD6D46EC
:101388006A46074612F8013F0137002BFAD1BE42E0
:10139800CCBFF71B1F4619F0020F14BF4FF03008DF
:1013A8004FF0200819F0010936D1002F33DD3E46F1
:1013B8004046FFF7C3FE013EFAD13C46302000E02C
:1013C8003C46FFF7BBFE15F8010F671C0028F7D154
:1013D800002EABDD35464046FFF7B0FE013DFAD1A1
:1013E800A7190137384604B0BDE8F0874FF0200848
:1013F8006D46E3E719F0010810D0A046002C94D000
:101408004FF0200AB0E719F001081C460BD04FF046
:10141800200A0027A8E74C463E46CFE74FF0200AAF
:1014280070E7A04678E747464FF0200A6BE7C846C2
:1014380068E700BF2DE9F04F0446007885B0002822
:1014480000F03C810F46002607E0FFF777FE0136E3
:10145800254668786C1C002875D02528F5D1607859
:10146800651C00286FD0252871D02D2803BFA51C26
:10147800A0780121002103E015F8010F41F00201D5
:101488003028F9D0A0F13002D3B2092B4FF0000474
:101498000AD815F8010F04EB840402EB4404A0F108
:1014A8003002D3B2092BF4D9732852D0642800F043
:1014B8008680782800F08F80582800F09980752859
:1014C80000F099806328C4D197F800908DF80C90AB
:1014D8004FF000028DF80D200437002C00F0AB808F
:1014E800B9F1000F00F0CC8003AA002312F8010F15
:1014F80001330028FAD1A342C0F2C38011F00204DC
:1015080040F0E980B9F1000F18D0A3464FF0200A47
:101518000DF10C084846FFF711FE18F8019F013439
:10152800B9F1000FF6D1BBF1000F07DDD9465046DF
:10153800FFF704FEB9F10109F9D15C442644687843
:101548006C1C002889D1304605B0BDE8F08F2C46C8
:101558007BE73A680437002A00F0AC80002C76D08C
:1015680013789146002B52D04A46002312F801EF17
:101578000133BEF1000FF9D1A34248DB11F0020498
:1015880075D011F0010B40F09B805C464FF0300A9B
:1015980099F800000028D1D0FFF7D0FD19F8010F05
:1015A800013400285BD1BBF1000FC7DDD946504696
:1015B800FFF7C4FDB9F10109F9D15C44BEE7612226
:1015C800386800910192234601220A21FFF748FE5C
:1015D800043706443DE73B466122186800910192B2
:1015E800234600221021FFF73BFE0437064430E76C
:1015F8003B464122F1E76122386800910192234677
:1016080000220A21FFF72CFE0437064421E711F0D7
:10161800020F14BF4FF0300A4FF0200A11F00101F9
:10162800A4EB03046AD099F80000A346002800F050
:101638008380002413E011F0010B7FF463AF4FF0B7
:10164800200AB9F1000F7FF463AF264477E71078DA
:1016580000283FF473AF9146A3464FF0200AFFF7E6
:101668006DFD19F8010F01340028F8D19BE799F8AE
:10167800000000283FF462AFA3464FF0200AEEE7CF
:101688004B4611F0020FA4EB030414BF4FF0300ACD
:101698004FF0200ACB072BD4002C3BDDA346504645
:1016A800FFF74CFDBBF1010BF9D1B9F1000F7FF445
:1016B8002FAFCAE7ACB3DFF8849055E7064642E798
:1016C80099F80000044600283FF438AF7446F34602
:1016D8004FF0300AC3E711F0010419D04C46B9F1B4
:1016E800000F3FF42BAF044683464FF0300A0FE754
:1016F800A346B9F1000F1DD0002409E7002CA3462A
:1017080016DD5046FFF71AFDBBF1010BF9D13FE793
:101718004FF0300AA3460024B9F1000F7FF4F8AE69
:1017280093E72820A3464FF0200ADFF8109096E7A9
:101738000C462DE74C46F6E6044634E71C470008FD
:101748002DE9F047054608788AB0002800F01C818A
:101758000026DFF860828A461746B146252815D04C
:10176800002D5BD02B6818702B6801332B60013675
:101778005446607804F1010A0028EFD115B12B68AE
:1017880000221A7030460AB0BDE8F0879AF80100C6
:101798000AF101040028F1D025283CD02D2803BFE8
:1017A8000AF102049AF802000123002303E014F866
:1017B800010F43F002033028F9D0A0F13001CAB27A
:1017C800092A4FF000020CD814F8010F02EB82022C
:1017D80001EB4202A0F130015FFA81FEBEF1090F70
:1017E800F2D973281DD0642826D078285ED05828CE
:1017F80077D0752800F08F806328BAD1D7F800E039
:101808008DF8159005A928468DF814E0FFF7A0FC7F
:1018180004370644ADE7A246002DA3D1FFF78EFC9E
:10182800A5E739686248002908BF01462846FFF73E
:101838008FFC043706449CE73868002807F1040742
:1018480000F09680C0F28E808DF827904FF0000A45
:101858000DF12701A8FB00CE4FEADE0E0EEB8E0C31
:10186800A0EB4C00303001F8010D70460028F1D192
:10187800BAF1000F14D08E46002A00F0878098072E
:1018880040F18480002D00F0888028684FF02D0EEC
:1018980080F800E0286801302860013A4FF0010A1A
:1018A8002846FFF755FC5044064462E7D7F800E0A5
:1018B8000437BEF1000F49D00AA901F8019D0EF0C6
:1018C8000F0000F1270C092888BF604630305FEA16
:1018D8001E1E01F8010DF2D12846FFF739FC064417
:1018E80047E7D7F800E00437BEF1000F2ED00AA969
:1018F80001F8019D0EF00F0000F1070C092888BFC0
:10190800604630305FEA1E1E01F8010DF2D128460C
:10191800FFF71EFCE3E7D7F800E00437BEF1000F3D
:1019280014D00AA901F8019DA8FB0EC0C00800EB5D
:10193800800CAEEB4C0E0EF1300E01F801ED864630
:101948000028F1D12846FFF703FCC8E74FF0300C18
:1019580006A928468DF819E08DF818C0FFF7F8FB9E
:10196800064406E740428DF827904FF0010A6FE7DA
:101978004FF0300E8DF8190006A928468DF818E0AA
:10198800FFF7E6FB0644F4E60646F7E62D200139A4
:101998000EF8010C4FF0000A82E72D200391029205
:1019A8000193FFF7CBFB0399029A019B75E700BFF0
:1019B8001C470008CDCCCCCC0FB400B583B004A92B
:1019C80051F8040B0191FFF735FD03B05DF804EB06
:1019D80004B070470EB400B584B005AA019052F85F
:1019E800041B039201A8FFF7ABFE04B05DF804EBFB
:1019F80003B0704708B53C4B984224D03B4B984203
:101A08002BD03B4B984232D03A4B984239D03A4B84
:101A1800984240D0394B984247D0394B98424ED0E3
:101A2800384B984255D0384B984200D008BD012118
:101A38004FF4807000F092FA00214FF48070BDE8F6
:101A4800084000F08BBA0121084600F087FA00210F
:101A58000120BDE8084000F081BA0121022000F011
:101A68007DFA00210220BDE8084000F077BA012184
:101A7800042000F073FA00210420BDE8084000F0BB
:101A88006DBA0121082000F069FA00210820BDE89C
:101A9800084000F063BA0121102000F05FFA00212D
:101AA8001020BDE8084000F059BA0121202000F0BC
:101AB80055FA00212020BDE8084000F04FBA012166
:101AC800402000F04BFA00214020BDE8084000F01B
:101AD80045BA0121802000F041FA00218020BDE8AC
:101AE800084000F03BBA00BF00000240000402407A
:101AF80000080240000C024000100240001402409E
:101B080000180240001C02400020024000222DE97B
:101B1800F0471346D1F800E001274FF0030C04E02A
:101B28000133102B02F1020229D007FA03F434EA38
:101B38000E05F5D1D0F800800E790CFA02F5ED43C8
:101B480008EA0508C0F80080D0F800A006FA02F9F3
:101B5800013E49EA0A09012E0CFA02F8C0F8009081
:101B68000FD9C568CC7925EA0805C560C5689440D1
:101B780001332C43102BC46002F10202D5D1BDE819
:101B8800F087D0F808904E7905EA09058560D0F805
:101B980008908D79964046EA09068660466826EAE6
:101BA80004044460466805FA03F4A4B2344344606C
:101BB800D7E700BF4FF6FF72002380E80C0070479C
:101BC80082B04FF480330193019B0B430193019B37
:101BD800C361C161019BC361C3690193C369019377
:101BE80002B070470369194214BF012000207047F2
:101BF800006980B2704700BF4369194214BF0120D1
:101C080000207047406980B2704700BF0183704769
:101C1800418370470AB9418370470183704700BF09
:101C2800416170474369594041617047CB0800EBF7
:101C3800830001F0070110B4036A89000F248C4067
:101C480023EA04030362036A5DF8044B02FA01F114
:101C580019430162704700BF0A4B0B481A680021FC
:101C680042F001021A6099601A6822F0847222F424
:101C780080321A6058601A6822F480221A60D9608B
:101C8800704700BF0038024010300024024B002289
:101C98001A701870704700BF0238024082B00023E3
:101CA8000A4A019302E0B3F5A06F08D0136813F451
:101CB800003F019B03F101030193019BF3D0034B08
:101CC8001868C0F3404002B0704700BF00380240B7
:101CD800034A136823F0F80343EAC0001060704712
:101CE80000380240014B1860704700BF00004742AF
:101CF800064B002201281A701A7005D0042802D158
:101D080005221A7070477047187070477038024083
:101D1800014B1860704700BF800E474230B4029CE8
:101D2800064D40EA04605B080843013B40EA821024
:101D380040EA0340686030BC704700BF003802408A
:101D4800014B1860704700BF600047420907034B0A
:101D580041EA8011C3F88410704700BF0038024080
:101D6800014B1860704700BF68004742014B18607C
:101D7800704700BF4C004742034A936823F0EC6366
:101D8800194301439160704700380240034A936841
:101D980023F07843194301439160704700380240AB
:101DA800034A936823F0030318439060704700BF09
:101DB80000380240024B986800F00C00704700BFE2
:101DC80000380240034A936823F0F00318439060F8
:101DD800704700BF00380240034A936823F4E05379
:101DE80018439060704700BF00380240034A936868
:101DF80023F4604343EAC000906070470038024013
:101E08001F4A936803F00C03042B10B41BD0082B53
:101E18001CD01C4B03601A4A1B499468C4F3031472
:101E28000C5DE34043609468C4F382240C5D23FA9C
:101E380004F4846092685DF8044BC2F342328A5C11
:101E4800D340C3607047114B0360E4E7546851689E
:101E580052686302C2F3881201F03F014CBF0B4B7A
:101E6800084BB3FBF1F303FB02F3054A5268C2F3D4
:101E7800014201325200B3FBF2F30360CBE700BF2B
:101E8800003802400024F4001C00002000127A00F0
:101E980000F44073B3F5407F09D108498A6820F0FF
:101EA800704322F4F81223F4407313438B60034BFE
:101EB8001A6FC0F30B0010431867704700380240D0
:101EC800014B1860704700BF3C0E4742014B186039
:101ED800704700BF400E4742014B1860704700BF73
:101EE8005C014742044A136B19B923EA00001063E6
:101EF800704718431063704700380240044A536B18
:101F080019B923EA000050637047184350637047BB
:101F180000380240044A936B19B923EA0000906321
:101F2800704718439063704700380240044A136CA6
:101F380019B923EA00001064704718431064704709
:101F480000380240044A536C19B923EA000050646F
:101F5800704718435064704700380240044A1369B8
:101F680019B923EA000010617047184310617047DF
:101F780000380240044A536919B923EA0000506145
:101F8800704718435061704700380240044A93690B
:101F980019B923EA000090617047184390617047AF
:101FA80000380240044A136A19B923EA0000106293
:101FB800704718431062704700380240044A536A59
:101FC80019B923EA000050627047184350627047FD
:101FD80000380240044A136D19B923EA000010655D
:101FE800704718431065704700380240044A536D23
:101FF80019B923EA000050657047184350657047C7
:1020080000380240044A936D19B923EA000090652C
:10201800704718439065704700380240044A136EB1
:1020280019B923EA00001066704718431066704714
:1020380000380240044A536E19B923EA000050667A
:10204800704718435066704700380240044A1378B6
:1020580019B923EA000010707047184310707047D0
:102068000D3802404309012B0BD0022B094B0CBF42
:102078001B6F5B6F00F01F0023FA00F000F00100F7
:102088007047044B1B6800F01F0023FA00F000F0B3
:102098000100704700380240024A536F43F08073D2
:1020A8005367704700380240034BDB68184214BF7F
:1020B80001200020704700BF00380240014B187013
:1020C800704700BF0E38024008B52B4B984219D014
:1020D8002A4B984220D02A4B984229D0294B984223
:1020E80032D0294B98423BD0284B984200D008BDAB
:1020F80001212020FFF762FF00212020BDE80840D1
:10210800FFF75CBF01211020FFF758FF00211020C6
:10211800BDE80840FFF752BF01214FF40030FFF738
:1021280041FF00214FF40030BDE80840FFF73ABFF7
:1021380001214FF48020FFF735FF00214FF4802064
:10214800BDE80840FFF72EBF01214FF40020FFF73C
:1021580029FF00214FF40020BDE80840FFF722BF07
:1021680001214FF48010FFF71DFF00214FF480106C
:10217800BDE80840FFF716BF0010014000440040CA
:1021880000480040004C004000500040001401404E
:10219800028AF0B592B20446C8880D4622F440522D
:1021A80002438989AB882F896E892282A28922F409
:1021B800B05222F00C023B4312043343120C9BB280
:1021C8001343A381A38A9BB223F440730B4385B0C6
:1021D800A3826846FFF714FE1C4B9C4228D003F5E7
:1021E80080639C4224D0029AA389A18913F4004FEA
:1021F8002B68174D02EB820214BF5B009B0002EBB9
:102208008202B2FBF3F0A5FB00325209642303FB00
:10221800120310010A040DD41B013233A5FB03235A
:10222800C3F3431343EA000292B2228105B0F0BD22
:10223800039AD9E7D9003231A5FB0131C1F3421223
:10224800024392B2228105B0F0BD00BF00100140E8
:102258001F85EB5100234FF416510C220160428177
:102268008380C38003818381704700BF30B40B88AB
:102278004D888C88028AC9882B4323430B4392B22A
:102288009BB222F470621343038230BC704700BFD4
:102298000023036043607047838929B923F40053FE
:1022A8001B041B0C838170479BB243F4005383814A
:1022B800704700BF038B03F47F430383038B9BB2F8
:1022C80019430183704700BF838919B9C3F30E030B
:1022D800838170476FEA43436FEA53439BB283811C
:1022E800704700BF838A29B923F400631B041B0CC1
:1022F800838270479BB243F400638382704700BFB8
:10230800C1F30801818070478088C0F308007047D6
:10231800038A23F00F031B041B0C0382038A9BB25E
:1023280019430182704700BF838929B923F002034A
:102338001B041B0C838170479BB243F0020383810B
:10234800704700BF838923F400631B041B0C83813F
:1023580083899BB219438181704700BF038A23F0A8
:1023680020031B041B0C0382038A9BB219430182BE
:10237800704700BF038A29B923F480431B041B0C50
:10238800038270479BB243F480430382704700BFC7
:1023980083899BB243F0010383817047838A29B9FB
:1023A80023F008031B041B0C838270479BB243F085
:1023B80008038382704700BF038BDBB20383038B60
:1023C8009BB243EA01210183704700BF838A29B980
:1023D80023F020031B041B0C838270479BB243F03D
:1023E80020038382704700BF838A29B923F0100332
:1023F8001B041B0C838270479BB243F0100383823B
:10240800704700BF838A23F004031B041B0C8382DC
:10241800838A9BB219438182704700BF838A29B996
:1024280023F002031B041B0C838270479BB243F00A
:1024380002038382704700BF838A9BB21AB923EADA
:1024480001018182704719438182704710B401F0FD
:102458001F04C1F342110123012903FA04F311D027
:1024680002290CBF1030143032B902685DF8044BF1
:1024780022EA03030360704702685DF8044B1343C4
:10248800036070470C30EFE70388194214BF01203E
:1024980000207047C94389B201807047C1F34212D6
:1024A80010B4012301F01F04012A03FA04F317D022
:1024B800022A0CBF028A828A92B21340028892B220
:1024C80053B10123090A03FA01F10A4214BF18465D
:1024D80000205DF8044B704718465DF8044B7047C0
:1024E800828992B21340E9E7090A012303FA01F14C
:1024F800C94389B20180704702683749002310B484
:1025080022F0010221248842026003604360836054
:10251800C360036144614DD0304B984235D0304B95
:10252800984239D02F4B98423DD02F4B984247D0F4
:102538002E4B984248D02E4B98421DD02D4B984296
:102548001ED02D4B984243D02C4B98421DD02C4B7B
:10255800984221D02B4B984225D02B4B98422FD014
:102568002A4B984230D02A4B984205D0294B9842A2
:1025780006D05DF8044B7047274A43F8942CF8E7D7
:102588004FF03D5243F8AC2CF3E74FF4746243F834
:10259800202C5DF8044B70474FF4741243F8382C24
:1025A8005DF8044B70474FF0746243F8502C5DF8A7
:1025B800044B7047194B5DF8044B3D229A607047F5
:1025C800174A43F8642CD4E7164A43F87C2CD0E722
:1025D8003D2243F8082CCCE71060024028600240F6
:1025E80040600240586002407060024088600240CB
:1025F800A0600240B86002401064024028640240B3
:10260800406402405864024070640240886402409A
:10261800A0640240B864024000003D20006002400F
:102628003D000020400F00200B68CA69F0B4CE6856
:102638004D698C690F6A33432B4323434E6A8D6A75
:102648004C6B13433B4333438A6B07680B4E2B4356
:1026580023433E4013433343CD6A036042690B6B07
:102668000E694C6889682B4322F0070213434361C3
:1026780046608460C160F0BC704700BF3F801CF0BA
:102688000023036043608360C36003614361836127
:10269800C361036243628362C36203634363836308
:1026A800704700BF036819B923F00103036070473E
:1026B80043F0010303607047036819B923F400432A
:1026C8000360704743F4004303607047036819B917
:1026D80023F020030360704743F020030360704732
:1026E80041607047406880B2704700BF036822B9F4
:1026F80023F4002303600161704743F4002303605F
:1027080001617047036819B923F480230360704797
:1027180043F48023036070470AB9C16070470161C0
:10272800704700BF0068C0F3C0407047006800F001
:1027380001007047406900F0380070470B4B0C4AA5
:1027480010B40C4CA04294BF184610468B004CBFE6
:10275800436803685DF8044B21F0F02121F08211F1
:10276800194214BF01200020704700BF00600240DA
:10277800006402400F64024010B4094B094C0A4A35
:10278800A04294BF1846104611F0005F21F0F021D6
:1027980021F0821114BFC16081605DF8044B70475D
:1027A800006002400F640240006402400B060CD532
:1027B8004369AAB143F08003802943610FD00368BD
:1027C80001F01E01194301607047802907D0002AD3
:1027D800F5D1036801F01E0123EA01010160704789
:1027E80023F0800380294361F3D1704730B4114B43
:1027F800114D124A21F0F02424F0C314A84298BFC6
:102808001A469CB1006800EAD12000F01E03880037
:102818004CBF5068106821F0F02121F08211084067
:1028280002D0181C18BF012030BC7047436903F060
:102838008003ECE7006002400F640240006402403D
:1028480010B4094B094C0A4AA04294BF18461046D6
:1028580011F0005F21F0F02121F0821114BFC16056
:1028680081605DF8044B7047006002400F640240CD
:102878000064024008B501214FF40060FFF79EFB99
:1028880000214FF40060BDE80840FFF797BB00BF88
:10289800F0B40A4C826861684368C76806680569CD
:1028A800007D21F4FD4121F07F0113430B433B439D
:1028B80033432B4303436360F0BC7047002C014053
:1028C80000230375036043608360C360036170473E
:1028D800014B1860704700BFA0802542014B18606B
:1028E800704700BF002C0140024B186800F003003D
:1028F800704700BF002C01400949036830B48B6061
:10290800CA6885684368C468006922F4FF622B437B
:1029180022F00702134323430343CB6030BC7047C4
:10292800002C01400023036043608360C36003619F
:10293800704700BF014B1869C0B27047002C0140B6
:10294800044B82B00344002201920193019B186852
:1029580002B07047142C0140094A036830B453622E
:1029680043689362C5688368D16A046940692B43E8
:1029780021F0F7010B4323430343D36230BC704774
:10298800002C014000234FF0FF3280E80C008360E8
:10299800C360036143617047014B186B704700BF08
:1029A800002C0140014BD3F880007047002C0140F7
:1029B800014BC3F880007047002C0140014B986C14
:1029C800704700BF002C0140014B1860704700BFE2
:1029D800A0852542014B1860704700BFA485254299
:1029E800014B1860704700BFA8852542014B18604D
:1029F800704700BFAC852542014B1860704700BF87
:102A0800AC812542014B1860704700BFB081254258
:102A1800C043024B00F0010018607047B4812542A2
:102A2800014B1860704700BFB8812542014B186000
:102A3800704700BF8C852542044AD36B19B923EA35
:102A48000000D06370471843D0637047002C0140E2
:102A5800034B5B6B184214BF01200020704700BF76
:102A6800002C0140014B9863704700BF002C0140C7
:102A7800034B5B6B034214BF01200020704700BF6B
:102A8800002C0140014B9863704700BF002C0140A7
:102A980008B501214FF48040FFF790FA00214FF468
:102AA8008040BDE80840FFF789BA00BF014B1860B5
:102AB800704700BF0038014001F0FC0303F1804378
:102AC80003F59C3301F0030110B49A6889000F24C0
:102AD8008C4022EA04029A609A685DF8044B00FA76
:102AE80001F1114399607047014B1860704700BFAE
:102AF800DC002742014B1860704700BF00042742E2
:102B0800024B186AC0F30020704700BF003801402C
:102B1800044B054900221A605A609A60DA605961CC
:102B2800704700BF003C0140FFFF7F00837933B34B
:102B38001C4B0279417970B404681E68E5432E4045
:102B48001E605E6802F1804202F59E3235405D608B
:102B580015682C43146002689C68D04304409C604C
:102B6800DC68102900EA0400D86013D001F1804322
:102B780003F59E3370BC19680A431A6070470379DD
:102B8800016803F1804303F59E331A6822EA0102C3
:102B98001A607047996811439960D9680A43DA60E6
:102BA80070BC7047003C014000230C224271036056
:102BB80003718371704700BF024A1369184310619B
:102BC800704700BF003C0140034B5B69034214BFE0
:102BD80001200020704700BF003C0140014B5861B4
:102BE800704700BF003C0140054B1A685B69034011
:102BF80004D0024214BF01200020704718467047D5
:102C0800003C0140014B5861704700BF003C014047
:102C180040F0BF60024B40F40030D860704700BFFE
:102C280000ED00E0C3785BB9037816485A092032F2
:102C380003F01F03012101FA03F340F82230704723
:102C4800114A70B4D2684378867801780D48D24327
:102C5800C2F30222C2F10405EDB20F24AB4044FADC
:102C680002F23240DBB2134344181B0101F01F0586
:102C780001224909DBB2AA4084F8003370BC40F84D
:102C88002120704700E100E000ED00E021F0604104
:102C980021F07F01014B01439960704700ED00E08E
:102CA80029B9054A136923EA000010617047024BED
:102CB8001A6910431861704700ED00E0044A136870
:102CC80004280CBF43F0040323F004031360704787
:102CD80010E000E008B5174B984212D0164B984206
:102CE8001BD0164B984200D008BD01214FF40000BC
:102CF800FFF758F900214FF40000BDE80840FFF73E
:102D080051B901214FF40010FFF74CF900214FF49D
:102D18000010BDE80840FFF745B901214FF48000D5
:102D2800FFF740F900214FF48000BDE80840FFF7A5
:102D380039B900BF0054004000580040005C004012
:102D4800F0B5044685B068460E46A588FFF758F8E2
:102D58000298314A3368DFF8C8E0A2FB001225F078
:102D68003F05910C2D042D0C8FB23D43A580228880
:102D780022F001021204120C7345228023D85B0052
:102D8800B0FBF3F39BB20137042B38BF042327842D
:102D9800A3832188B0887789B289358989B241F0BF
:102DA80001012180238823F4816323F002031B049B
:102DB80040EA07011B0C0B432A439BB292B22380C3
:102DC800228105B0F0BDF5884BF6FF7295421DD003
:102DD80003EB830303EB8303B0FBF3F39BB243F4EE
:102DE8008043C3F30B020AB943F001034FF4967210
:102DF8000A4802FB01F280FB0201D217C2EBA112C2
:102E0800013292B243F400432284C1E703EB430347
:102E1800B0FBF3F39BB2E4E783DE1B43D34D6210B0
:102E2800A0860100002310B44BF6FF7141F28834EC
:102E38004FF480420460C180828183800381438192
:102E48005DF8044B704700BF038829B923F00103DC
:102E58001B041B0C038070479BB243F001030380E3
:102E6800704700BF038829B923F480731B041B0C27
:102E7800038070479BB243F480730380704700BFA0
:102E8800038829B923F400731B041B0C03807047C3
:102E98009BB243F400730380704700BF22B901F06E
:102EA800FE0189B20182704741F0010189B20182B5
:102EB800704700BF038829B923F480631B041B0CE7
:102EC800038070479BB243F480630380704700BF60
:102ED80083899BB201F0FE0123F0FE030B4383813B
:102EE800704700BF838929B923F001031B041B0C19
:102EF800838170479BB243F001038381704700BF11
:102F0800038829B923F040031B041B0C0380704776
:102F18009BB243F040030380704700BF038819B990
:102F2800C3F30E03038070476FEA43436FEA5343CA
:102F38009BB20380704700BF038829B123F0800348
:102F48001B041B0C038070479BB243F08003038073
:102F5800704700BFB1F5804F838B05D023F48043C1
:102F68001B041B0C838370479BB243F48043838309
:102F7800704700BFB1F5006F038805D023F40063E4
:102F88001B041B0C038070479BB243F4006303804F
:102F9800704700BFB1F5005F038805D023F40053E4
:102FA8001B041B0C038070479BB243F4005303803F
:102FB800704700BF038829B923F010031B041B0CBA
:102FC800038070479BB243F010030380704700BF33
:102FD80001827047008AC0B2704700BF038829B9D0
:102FE80023F480531B041B0C038070479BB243F4EB
:102FF80080530380704700BFB1F5006F038805D088
:1030080023F400631B041B0C038070479BB243F43A
:1030180000630380704700BF038829B923F02003A9
:103028001B041B0C038070479BB243F020030380F2
:10303800704700BF008BC0F307207047838829B909
:1030480023F400631B041B0C838070479BB243F47A
:1030580000638380704700BF838829B923F48053B5
:103068001B041B0C838070479BB243F480538380FE
:10307800704700BF82B0002301930190019B19445F
:103088000191019B188880B202B0704783889BB277
:103098001AB923EA0101818070471943818070477A
:1030A800838A008B9BB243EA004321F07F4018409B
:1030B800401AB0FA80F04009704700BF838A028B3B
:1030C80098B240EA024020F07F40704782B0002367
:1030D8000A0F0093019301900092009B21F07F4119
:1030E80053B1019B14330193019B1B68194214BF10
:1030F8000120002002B07047019B1833090C01938E
:10310800F2E700BFC94389B2818270478388808A09
:1031180080B208409BB206D003F4E06313EA11437F
:1031280014BF012000207047C94389B281827047CB
:1031380008B5174B984212D0164B98421BD0164B25
:10314800984200D008BD01214FF40040FEF72AFF45
:1031580000214FF40040BDE80840FEF723BF0121DD
:103168004FF48050FEF72AFF00214FF48050BDE84D
:103178000840FEF723BF01214FF48040FEF712FFFD
:1031880000214FF48040BDE80840FEF70BBF00BFA8
:103198000030014000380040003C00400A884B885D
:1031A800F0B48F88CD880C894E8913433B432B4359
:1031B80023438D89CC890288098A33432B432343CF
:1031C80002F4415213439BB20380838B23F40063C0
:1031D8001B041B0C8383F0BC01827047838B23F490
:1031E8007B6323F00F031B0402221B0C2DE9F04123
:1031F8008F6883830284848B9742A4B24FD02A4B72
:103208008D889A68002D0CBF4FF0200C4FF0400CB1
:1032180012023FD4244E254AD6F884E0D6F88430EA
:10322800D6F80480CE88CEF3881EB6F5007FC3F3A7
:10323800027308F03F08B2FBF8F202FB0EF2B2FB91
:10324800F3F20CBF120AB2FBFCF202EB820253004B
:10325800174AB3FBF7F305339BB2A2FB0323DB0842
:103268005F08BA1E03F00103FD2A94BF47EA03234F
:103278000223B1F800E04F888A894EEA070141F439
:10328800006111430C43A4B233432C430384848369
:10329800BDE8F0819A6822F400029A60BAE73B46DA
:1032A8008D88CE88E5E700BF0038024000127A001A
:1032B800CDCCCCCC002307220282038043808380BC
:1032C800C380038143818381C38170470023022225
:1032D8008260036043608381704700BF038829B917
:1032E80023F040031B041B0C038070479BB243F080
:1032F80040030380704700BF838B29B923F48063A0
:103308001B041B0C838370479BB243F48063838345
:10331800704700BF038823F400631B041B0C038061
:1033280003889BB219430180704700BFB1F5804FF5
:10333800038805D023F480431B041B0C03807047CB
:103348009BB243F480430380704700BF4FF6FF638E
:103358009942038804D09BB243F48073038070477A
:1033680023F480731B041B0C03807047838829B9DE
:1033780023F004031B041B0C838070479BB243F0AB
:1033880004038380704700BF838829B923F01003A2
:103398001B041B0C838070479BB243F0100383808F
:1033A800704700BF828B4B8822F47B6222F00F02A9
:1033B80070B412048E880C888D89120C02218283C5
:1033C80033430184818B24F4007243F4006392B286
:1033D8002B43002A43EA01039BB20CBF4FF48072CF
:1033E80000221343838370BC704700BF808980B27A
:1033F800704700BF81817047038829B923F40053BF
:103408001B041B0C038070479BB243F400530380DA
:10341800704700BF03889BB243F480530380704712
:10342800012914BF008B808A80B27047008A80B25D
:10343800704700BF83889BB21AB923EA01018180D3
:1034480070471943818070470123090903FA01F184
:10345800838889B29BB21AB923EA01018180704737
:1034680019438180704700BF0389194214BF0120A6
:1034780000207047C94389B20181704710B484881D
:10348800008901F00F03012280B202FA03F3184009
:1034980006D00909A4B28A40144214BF01200020B2
:1034A8005DF8044B704700BF01F00F01012303FAD8
:1034B80001F1C94389B20181704700BF30B50B4C97
:1034C80083B00546012154F82000FEF70BFD04EBFC
:1034D8004504074B228A53F82500064B009269469B
:1034E8000193FEF713FB03B030BD00BFA4430008EF
:1034F8002C00002001020001044B054A03EB4003A5
:1035080052F820201B8A1383704700BFA443000889
:103518002C000020044B054A03EB400352F82020FE
:103528001B8A5383704700BFA44300082C00002067
:10353800054B064A52F8202003EB40005169038AE4
:103548004B405361704700BFA44300082C00002083
:1035580030B50D46012187B004460846FEF7C2FC87
:1035680001214FF48040FEF7EDFC154806A900EB59
:1035780084000123002441F8103D00698DF80C40B7
:103588008DF80F40FEF7C2FA012D01D007B030BD0B
:1035980021462046FFF790FA082304A88DF8153035
:1035A80004958DF814408DF81650FFF7BFFA06A859
:1035B800044B40F8143DFFF735FB07B030BD00BFA2
:1035C8002C000020060F0F0108B5044B03EB800008
:1035D80001210069FEF706FB08BD00BF2C00002092
:1035E80058470008000000208408002088080020B0
:1035F800340900202DE9F04F8DB008A8FEF700FC33
:10360800099B4848484A4949DFF84081484F494E94
:10361800494DDFF83CA1DFF83C91A0FB03039B096F
:10362800013B5360F0200723002481F823009460B5
:103638001360FCF735FEFCF749FEFCF75DFEFDF76D
:1036480029F93E48FEF7B8F9FCF7B2FEFDF73EF857
:10365800FCF7DAFFA34601215046FEF7C3FA00281B
:103668004ED0002C57D0B7F90440B7F90200B7F98B
:1036780000C0B6F904E005940490B6F90240B6F922
:103688000000B8F90430B8F90220B8F90010CDF8F4
:103698000CC08DE811402A48FEF78EF94FF4FA70F5
:1036A800FCF76AFE01240020FCF708FF0A20FCF75B
:1036B80063FE0020FDF768F80A20FCF75DFE2B7812
:1036C800204831223A21002BC5D0FDF72FF90146B9
:1036D8001D48FEF771F94FF470414846FEF796FA17
:1036E8001420FCF749FE4FF470414846FEF790FA63
:1036F8000121504685F800B0FEF774FA0028B0D1D1
:10370800002CD0D007904FF470414846FEF780FA5D
:10371800079B1C46C7E74FF470414846FEF776FA08
:10372800A1E700BFD34D621010E000E000ED00E01B
:10373800F4080020FC080020A4080020D443000856
:10374800E04300080054004010440008EC08002042
:1037580000000240000C0240002103E00B4B5B58C4
:10376800435004310A480B4B42189A42F6D30A4A8E
:1037780002E0002342F8043B084B9A42F9D3FDF7D4
:103788007BFA00F01FF8FFF735FF7047584700082D
:103798000000002084080020880800203409002048
:1037A800FEE7000008B50021044600F0DDF8044BF0
:1037B8001868C36B03B198472046FDF7DBFB00BFD1
:1037C8002447000870B50F4E0F4D761BB61018BF72
:1037D800002405D0013455F8043B9847A642F9D196
:1037E8000A4E0B4D761B00F09DFFB61018BF002443
:1037F80006D0013455F8043B9847A642F9D170BD6C
:1038080070BD00BF4C4700084C47000854470008EB
:103818004C47000870B4860746D0541E002A41D091
:10382800CAB2034602E014F1FF343BD303F8012B7C
:103838009D07F8D1032C2ED9CDB245EA05250F2CCA
:1038480045EA054519D903F110022646103E0F2E08
:1038580042F8105C42F80C5C42F8085C42F8045CE0
:1038680002F11002F2D8A4F1100222F00F0204F0C3
:103878000F041032032C13440DD91E462246043A75
:10388800032A46F8045BFAD8221F22F00302043206
:10389800134404F003042CB1C9B21C4403F8011BFF
:1038A8009C42FBD170BC704714460346C2E700BF78
:1038B80038B50C460968054609B1FFF7F9FF2146F6
:1038C8002846BDE8384000F033B900BF204B1B68DC
:1038D80083423CD0C36C70B505468BB1002699591C
:1038E80039B10C68284600F023F92146002CF8D19C
:1038F800EB6C0436802EF2D11946284600F018F9F0
:10390800296C11B1284600F013F9D5F8481151B1C6
:1039180005F5A676B14206D00C68284600F008F9ED
:10392800A6422146F8D1696D11B1284600F000F988
:10393800AB6B03B970BDEB6B28469847D5F8E0121E
:103948000029F7D02846BDE87040FFF7B1BF70479F
:1039580040000020024B13B1024800F079B87047CC
:1039680000000000653A00082DE9F04F354B85B09E
:103978000E460190186800F0CBF9334B1B68029390
:1039880003F5A4730393029BD3F8487137B3DDF8AA
:103998000CA04FF00109D3467C68651E0ED4013493
:1039A80007EB84044FF00008FEB1D4F800319E42C2
:1039B8001BD0013D6B1CA4F10404F5D1234B6BB162
:1039C8007B68002B39D13B6843B13846CBF80030CF
:1039D800AFF30080DBF80070002FDDD1194B1868B9
:1039E80005B0BDE8F04F00F09BB97B682268013B49
:1039F800AB420CBF7D60C4F80080002AD9D0D7F84C
:103A08008811D7F804A009FA05F30B420FD0D7F8AC
:103A18008C110B420DD1D4F88010019890477B6827
:103A28005345B0D1DBF80030BB42C2D0ABE790477A
:103A3800F5E7D4F880009047F1E7BB463F68002FD0
:103A4800AAD1CBE77004002024470008000000003A
:103A5800002301461A46184600F032BC38B50A4C15
:103A68000A4D641BA4100AD004F18043013B05EB06
:103A78008305013C55F804399847002CF9D1BDE875
:103A8800384000F055BE00BF5847000854470008AA
:103A9800F8B5244F0C46064600F0F4FBBB685D6899
:103AA800C4F57E610F3125F00305294421F47F61B7
:103AB80021F00F01A1F58054B4F5805F07DB0021E8
:103AC800304600F0EBFBBB682B44984204D03046EC
:103AD80000F0DEFB0020F8BD6142304600F0DEFB5E
:103AE80001300DD0104BBA6819682D1B45F001053F
:103AF8003046091B5560196000F0CAFB0120F8BD6B
:103B08000021304600F0CAFBBA68831A0F2BDEDDAD
:103B1800064C0549246843F00103001B5360086004
:103B2800D5E700BF74040020B80800207C080020F6
:103B3800002944D02DE9F0410D46804600F0A2FB53
:103B480055F8047C694927F00103A5F10804E21837
:103B58008E685068B24220F003005ED0FE075060C5
:103B68000BD455F8087CE41B01F1080EA5687545CF
:103B78003B446DD0E768EF60BD6015186D68ED07D0
:103B88003ED543F001026260E350B3F5007F17D2DF
:103B9800DB08581C9A104D6851F83070A760012353
:103BA800934001EBC0022B43083AE2604B6041F8B6
:103BB8003040FC604046BDE8F04100F069BB70470A
:103BC8005A0A042A52D89A0902F13907FF0002F169
:103BD8003805C819CA59083890424FD0516821F0A1
:103BE80003018B4232D292689042F7D1C368A06039
:103BF800E3609C60C4604046BDE8F04100F048BB0B
:103C080095683B4FBD42034440D0D068E86043F01C
:103C1800010285606260E350B7E7FF07034407D4F9
:103C280055F8082CA41A1344A068E268C260906092
:103C3800304A126843F00100934260608C60B9D347
:103C48002D4B40461968FFF723FFB3E71046CDE731
:103C580011184968C90744D49168D268CA600344F6
:103C680043F0010091606060E350A3E7142A16D87E
:103C780002F15C07FF0002F15B05AAE7AA10012325
:103C88004D6893402B434B600346B0E743F0010275
:103C98004C610C61E560A5606260E3508AE7542AD4
:103CA80006D81A0B02F16F07FF0002F16E0590E7C4
:103CB800B2F5AA7F06D8DA0B02F17807FF0002F105
:103CC800770586E740F25450824206D89A0C02F1F2
:103CD8007D07FF0002F17C057BE74FF47E777E25A8
:103CE80077E743F001016160136063E77404002023
:103CF8007C04002080080020E8080020704700BFEE
:103D0800704700BF704700BF704700BF704700BFD3
:103D1800704700BF0120704701207047704700BFFF
:103D2800704700BF2DE9F04F01F10B06162E83B046
:103D3800054640F29E8036F0070600F1BD80B1428C
:103D480000F2BA8000F09EFAB6F5FC7FC0F09382CC
:103D5800730A00F0B880042B00F27981B30903F1EB
:103D6800390003F1380EC300BF4F3B44A3F10801EB
:103D78005C68A14206D10CE0002A80F2AA80E468BF
:103D8800A14206D0636823F003039A1B0F2AF3DDD0
:103D980070463C69DFF8E4E2744500F0AB81636883
:103DA80023F003039A1B0F2A00F39081002AC7F817
:103DB80014E0C7F810E080F29D80B3F5007F80F032
:103DC8006181DB0803F1010C99107A6857F83C808F
:103DD800C4F8088001238B4007EBCC011343083952
:103DE800E1607B6047F83C40C8F80C408210012431
:103DF80094409C4200F28B801C4206D120F00300C4
:103E080064001C4200F10400FAD007EBC009CC465C
:103E18008046DCF80C309C4507D16DE1002A80F221
:103E28007B81DB689C4500F06781596821F00301BC
:103E38008A1B0F2AF2DDD3F80CC0D3F80880009350
:103E48009C19284646F0010642F001055E60C8F854
:103E58000CC0CCF808807C613C61C4F80CE0C4F864
:103E680008E065605A5000F013FA009B03F108045B
:103E78001EE0102920D800F005FA10261823022089
:103E8800794F3B44A3F108025C68944200F03D81FD
:103E98006368E168A66823F00303234428465A6848
:103EA800F16042F001028E605A6000F0F1F90834C6
:103EB800204603B0BDE8F08F00240C2320462B6079
:103EC80003B0BDE8F08F40204FF400734FF03F0E71
:103ED8004AE72344E1685A68A66842F00102F160A3
:103EE80028468E605A6000F0D3F90834204603B0A3
:103EF800BDE8F08F234428465A6842F001025A6010
:103F080000F0C6F90834204603B0BDE8F08FBC685D
:103F1800636823F00308B04504D3A8EB06030F2B0E
:103F280000F38580DFF85891504BD9F800201B68C2
:103F38000132334404EB080A00F0558103F580533D
:103F48000F3323F47F6B2BF00F0B5946284600F0F4
:103F5800A5F9411C024600F0FC80824500F2F7807A
:103F6800434B19685944196000F04D81D9F8000095
:103F780001301BBFA2EB0A0A5144C9F8002019609E
:103F880012F0070100F01581C1F10800C1F5805158
:103F98000244083102EB0B09C9F30B09A1EB09092B
:103FA800494628460193009200F078F9431C9DE8A1
:103FB8000C0000F04381801A484440F00100196861
:103FC800BA604944BC425060196017D0B8F10F0F6D
:103FD80040F2FB806068A8F10C0222F0070204EBB3
:103FE800020E00F001004FF0050C10430F2A60602C
:103FF800CEF804C0CEF808C000F217811D4BBC688B
:104008001A68914288BF19601B4B1A68914262680E
:1040180088BF196022F003029642A2EB060301D87A
:104028000F2B04DC284600F033F9002440E7A219DE
:1040380043F0010346F0010666602846BA60536003
:1040480000F026F90834204603B0BDE8F08F142BA1
:1040580071D9542B00F2A380330B03F16F0003F1E5
:104068006E0EC30080E600BF74040020E80800203C
:10407800B8080020E0080020E40800207C040020A4
:104088007C0800205A0A042A5BD9142A00F2AE8060
:1040980002F15C01C9005B3207EB010C7958ACF105
:1040A800080C8C4500F088804A6822F0030293428D
:1040B80073D289688C45F7D1DCF80C207B68E26004
:1040C800C4F808C09460CCF80C408FE6A11946F0FB
:1040D800010C42F00106C4F804C028467961396130
:1040E800C1F80CE0C1F808E04E60E25000F0D0F8EA
:1040F8000834DDE67B6879E608F1010818F0030F5B
:104108000CF1080C7FF485AE2DE0DC68A34208BFF3
:1041180002303FF43EAEBBE619441C464A68DB68F1
:1041280054F8086F42F001024A602846F3609E6026
:1041380000F0AEF8BCE603F15C0003F15B0EC300CF
:1041480012E69A0902F13901C9003832A4E7BC42E3
:1041580054D0BC68626822F003025DE759F8083958
:10416800994540F0868010F0030F00F1FF30F5D13B
:104178007B6823EA04037B6064009C423FF6C7AE79
:10418800002C3FF4C4AE1C4240467FF43EAE6400AF
:104198001C4200F10400FAD037E68C468CE7B3F5F0
:1041A800AA7F15D8F30B03F1780003F1770EC3004B
:1041B800DAE54FF48051EDE67B689210012101FAAF
:1041C80002F213437B60624679E70123536029E7D3
:1041D80040F25452934222D8B30C03F17D0003F10C
:1041E8007C0EC300C0E503F1100BAEE6542A29D8B3
:1041F8001A0B02F16F01C9006E324DE7204B1968A6
:1042080059441960B2E6CAF30B0000287FF4AEAE39
:1042180008EB0B03BA6843F001035360EEE67F2016
:104228004FF47E734FF07E0E9EE504F10801284698
:104238000093FFF77DFC009B1968DFE601204FF033
:104248000009BCE6B2F5AA7F05D8DA0B02F17801BD
:10425800C900773220E740F254518A4205D89A0CB7
:1042680002F17D01C9007C3216E74FF47E717E228F
:1042780012E77B6880E7F00806F1080300E600BF54
:10428800B80800200148FFF743BD00BF20090020FF
:104298000148FFF745BD00BF2009002038B5074C8D
:1042A8000023054608462360FCF7AEFE431C00D0F9
:1042B80038BD2368002BFBD02B6038BD0C090020CB
:1042C8002DE9F8432C4D0646286898460F46914636
:1042D800FFF71EFD294B1C68D4F84831002B3ED04F
:1042E8005A681F2A1CDC02F1010E76B103EB820129
:1042F8000124C1F88890D3F8880194402043022E05
:10430800C3F88801C1F8088123D00232C3F804E059
:10431800286843F82270FFF703FD0020BDE8F88302
:10432800174B0BB34FF4C870AFF300800346D8B1F6
:10433800D4F848210260002141600A46C4F84801C7
:104348004FF0010EC0F88811C0F88C11002EDCD097
:10435800CCE7D3F88C110C43C3F88C41D5E704F5AE
:10436800A673C4F84831BBE72868FFF7D9FC4FF0BB
:10437800FF30BDE8F88300BF700400202447000820
:10438800000000000F0000100000000004000400FE
:104398000400000000870820000C2000080000002E
:1043A80008000000080000000800000000100020BD
:1043B800004000800600000000000000000000002F
:1043C800010000000100000001000000426567696B
:1043D8006E202E2E2E0D0A00473A205B25642025DC
:1043E800642025645D3B20583A205B2564202564C1
:1043F8002025645D3B204D5B2564202564202564D1
:104408005D200D0A000000006672656566616C6CCF
:1044180021212120696E746572727570746564203B
:1044280073726320307825780D0A000045525221B6
:1044380021206779726F206661696C656420746FEA
:104448002062652073656C6563746564200D0A00DD
:104458006779726F20697320636F6E66696775721A
:10446800656420307825782C20307825782C203009
:104478007825782C20307825782C203078257820DD
:104488000D0A00006779726F5F7570646174653A30
:1044980020782025642C20792025642C207A20255A
:1044A80064200D0A000000006779726F20696E743D
:1044B80031206973207475726E6564206F6E207286
:1044C80065672030782578200D0A0000786D20690E
:1044D8006E7431206973207475726E6564206F6E16
:1044E80020726567203078257820746873203078CA
:1044F80025780D0A00000000455252212120786DD0
:10450800206661696C656420746F2062652073653C
:104518006C6563746564200D0A000000786D20697D
:104528007320636F6E6669677572656420307825DD
:10453800782C20307825782C20307825782C20305D
:104548007825782C20307825782C2020307825780C
:104558002C20307825782C2030782578200D0A00FA
:10456800616363656C5F7570646174653A20782077
:1045780025642C20792025642C207A20256420614C
:10458800627353756D2025640D0A00006D65675FC1
:104598007570646174653A20782025642C20792030
:1045A80025642C207A202564200D0A004E4D495F91
:1045B80048616E646C65720D0A000000486172649F
:1045C8004661756C740D0A00202070633A202578C6
:1045D8000D0A000020207073723A2025780D0A0019
:1045E80020206C723A2025780D0A00004D656D4D2B
:1045F800616E6167655F48616E646C65720D0A0083
:104608004275734661756C745F48616E646C65725F
:104618000D0A000055736167654661756C745F48E3
:10462800616E646C65720D0A000000002020257818
:104638000D0A0000202044697669646520627920AB
:104648007A65726F0D0A00002020556E616C6967EB
:104658006E6564206163636573730D0A0000000072
:1046680020204E6F20636F2D70726F636573736FB8
:10467800720D0A002020496E76616C6964205043EF
:10468800206C6F61640D0A002020496E76616C69A8
:10469800642073746174650D0A0000002020556E53
:1046A800646566696E656420696E73747275637497
:1046B800696F6E0D0A0000005356435F48616E64CF
:1046C8006C65720D0A00000044656275674D6F6E77
:1046D8005F48616E646C65720D0A000050656E6417
:1046E80053565F48616E646C65720D0A00000000E5
:1046F80065786974000000004865617020616E6427
:1047080020737461636B20636F6C6C6973696F6E7F
:104718000A000000286E756C6C2900004800002013
:1047280000000000F8B500BFF8BC08BC9E46704702
:0C473800F8B500BFF8BC08BC9E467047F6
:08474400B0BAFF7F0100000084
:08474C005D390008AD01000811
:0447540089010008CF
:104758000000000000000000000000000102030447
:1047680006070809007A030AB408002000000000C0
:10477800010203040102030406070809000C0240B1
:10478800000C0240000C0240000C024000000240F5
:104798004800002000000000000000003403002052
:1047A8009C0300200404002000000000000000001A
:1047B80000000000000000000000000000000000F1
:1047C80000000000000000000000000000000000E1
:1047D80000000000000000000000000000000000D1
:1047E80000000000000000000000000000000000C1
:1047F80000000000000000000000000000000000B1
:1048080000000000000000000000000000000000A0
:104818000000000000000000000000000000000090
:104828000000000000000000000000000000000080
:104838000000000000000000000000000000000070
:1048480001000000000000000E33CDAB34126DE60D
:10485800ECDE05000B000000000000000000000076
:104868000000000000000000000000000000000040
:104878000000000000000000000000000000000030
:104888000000000000000000000000000000000020
:104898000000000000000000000000000000000010
:104BC800100900200000000000000000740400200C
:104BD800740400207C0400207C040020840400204D
:104BE800840400208C0400208C04002094040020FD
:104BF800940400209C0400209C040020A4040020AD
:104C0800A4040020AC040020AC040020B40400205C
:104C1800B4040020BC040020BC040020C40400200C
:104C2800C4040020CC040020CC040020D4040020BC
:104C3800D4040020DC040020DC040020E40400206C
:104C4800E4040020EC040020EC040020F40400201C
:104C5800F4040020FC040020FC04002004050020CB
:104C6800040500200C0500200C0500201405002078
:104C7800140500201C0500201C0500202405002028
:104C8800240500202C0500202C05002034050020D8
:104C9800340500203C0500203C0500204405002088
:104CA800440500204C0500204C0500205405002038
:104CB800540500205C0500205C05002064050020E8
:104CC800640500206C0500206C0500207405002098
:104CD800740500207C0500207C0500208405002048
:104CE800840500208C0500208C05002094050020F8
:104CF800940500209C0500209C050020A4050020A8
:104D0800A4050020AC050020AC050020B405002057
:104D1800B4050020BC050020BC050020C405002007
:104D2800C4050020CC050020CC050020D4050020B7
:104D3800D4050020DC050020DC050020E405002067
:104D4800E4050020EC050020EC050020F405002017
:104D5800F4050020FC050020FC05002004060020C6
:104D6800040600200C0600200C0600201406002073
:104D7800140600201C0600201C0600202406002023
:104D8800240600202C0600202C06002034060020D3
:104D9800340600203C0600203C0600204406002083
:104DA800440600204C0600204C0600205406002033
:104DB800540600205C0600205C06002064060020E3
:104DC800640600206C0600206C0600207406002093
:104DD800740600207C0600207C0600208406002043
:104DE800840600208C0600208C06002094060020F3
:104DF800940600209C0600209C060020A4060020A3
:104E0800A4060020AC060020AC060020B406002052
:104E1800B4060020BC060020BC060020C406002002
:104E2800C4060020CC060020CC060020D4060020B2
:104E3800D4060020DC060020DC060020E406002062
:104E4800E4060020EC060020EC060020F406002012
:104E5800F4060020FC060020FC06002004070020C1
:104E6800040700200C0700200C070020140700206E
:104E7800140700201C0700201C070020240700201E
:104E8800240700202C0700202C07002034070020CE
:104E9800340700203C0700203C070020440700207E
:104EA800440700204C0700204C070020540700202E
:104EB800540700205C0700205C07002064070020DE
:104EC800640700206C0700206C070020740700208E
:104ED800740700207C0700207C070020840700203E
:104EE800840700208C0700208C07002094070020EE
:104EF800940700209C0700209C070020A40700209E
:104F0800A4070020AC070020AC070020B40700204D
:104F1800B4070020BC070020BC070020C4070020FD
:104F2800C4070020CC070020CC070020D4070020AD
:104F3800D4070020DC070020DC070020E40700205D
:104F4800E4070020EC070020EC070020F40700200D
:104F5800F4070020FC070020FC07002004080020BC
:104F6800040800200C0800200C0800201408002069
:104F7800140800201C0800201C0800202408002019
:104F8800240800202C0800202C08002034080020C9
:104F9800340800203C0800203C0800204408002079
:104FA800440800204C0800204C0800205408002029
:104FB800540800205C0800205C08002064080020D9
:104FC800640800206C0800206C080020FFFFFFFF29
:044FD80000000200D3
:044FDC0000000000D1
:040000050800376157
:00000001FF
